S03500005B6C77746F6F6C7320342E32305D20696E636C7564653A2E2E2F4D5320457874656E6465642042415349432F67626173696346
S113100010CE41DC113D0186401F8B966E81552622
S11310100A9E6FA684811226026E848E40006F8021
S11310208C420726F98E42076F809F198EF0009F2D
S1131030719F279F233089FF389F218E10EFCE4068
S113104076C612BD11CA863997DEBD14D58E40A36B
S11310509F8DCE1BE9C60AEF815A26FB8E111EBD59
S113106021008E10E89F6F8655976E7E10EC8E409F
S1131070E1863EA780A780B642058D4FB642068D15
S11310804A8620A78010BE4205118610CE411886DC
S1131090A8A7C011C62EA6A08122260511E7C0204C
S11310A00B81202C0511E7C02002A7C08D1D8620CE
S11310B0A780114A26E010BF420586A8A7C0860D66
S11310C0A7C06FC48E40E1BD2100391F8944444448
S11310D044810923028B078B30C40FC1092302CB3F
S11310E007CB30A780E7803912BD14EF7E143D1082
S11310F04050001BE90C8426020C83B600007E11CC
S1131100DA7E1BE9804FC7525932123813451D123B
S1131110D811E90000000000000000000000000DEC
S11311203638303920455854454E444544204241D0
S11311305349430D2843292031393832204259205C
S11311404D4943524F534F46540D0D0034169E766D
S1131150DC789F6AD76C976D35960F738E40E2C624
S113116001BD3453810826075A27EF301F203481EC
S113117015260A5A27E48608BD343520F681031A59
S1131180012705810D260D4F3401BD20C06F848ECB
S113119040E13581812025C9817B24C5C1FA24C160
S11311A0A7805CBD343520B92705BD1EDC9F7A6E4F
S11311B09F407A7E15BE96732603BD34270F73971E
S11311C05310260C6997567E1E3AA680A7C05A264D
S11311D0F939399D8227FB7E1A1B813A240A812022
S11311E026020E7C803080D03923DE245223F7403F
S11311F09B268326D81EEF1E201C9C1EB51E3F1E58
S11312002B27882750275928CA28FC281E2A8428D7
S1131210582F561E4A1E671E6E11B61C8D2A8C2B23
S11312204C2B1C7921297921207B22307B22F57FCC
S11312302861501A74461A73464FD247CF5245CD8F
S1131240A7454C53C549C6444154C15052494ED494
S11312504FCE494E5055D4454EC44E4558D44449BA
S1131260CD524541C45255CE524553544F52C552A6
S113127045545552CE53544FD0504F4BC5434F4E07
S1131280D44C4953D4434C4541D24E45D745584597
S1131290C354524FCE54524F46C64445CC4445C61F
S11312A04C494EC552454E55CD454449D45441420E
S11312B0A854CF5355C2544845CE4E4FD4535445E9
S11312C0D04F46C6ABADAAAFDE414EC44FD2BEBD71
S11312D0BC46CE5553494EC75347CE494ED44142DE
S11312E0D35553D2524EC45349CE504545CB4C45A9
S11312F0CE535452A45641CC4153C3434852A44103
S113130054CE434FD35441CE4558D04649D84C4F80
S1131310C7504FD35351D2484558A44C454654A4C2
S11313205249474854A44D4944A4494E4B4559A4F5
S11313304D45CD5641525054D2494E5354D2535434
S113134052494E47A41503164E16AB16AB16AB16F0
S1131350DC16A82085170A17B715D5189C1AED179F
S1131360F1164315B7168815D91EF615FE1EFD167F
S11313700F14D311A82A7F2A802CFB2C3F33E92D8C
S113138085290B4E46534E52474F4446434F564FC2
S11313904D554C425344442F304944544D4F534CC3
S11313A0535354434E4644414F444E494F464D4E89
S11313B04F4945445355464E45204552524F5200DD
S11313C020494E20000D4F4B0D000D425245414B1C
S11313D0003064C6129F0FA68480802615AE019F3C
S11313E0119E3B27099C1127099E0F3A20E59E1167
S11313F09F3B9E0F4D398D17DE4133419E43300193
S1131400A68236029C4726F8DF45394F58D31FC3BE
S1131410003A250810DF1710931725EEC60CBD14EB
S1131420EFBD20C4BD21138E13833A8D318D2F8ED1
S113143013B8BD210096684C2703BD2529BD20C4DF
S11314408E13C5BD2100BD115ACEFFFFDF6825F6FE
S11314509F839D7C27F0250BBD1FB27E158CA68033
S11314607E2115BD172F9E2B9FDFBD1FB2D7038D85
S11314704C2512DC47A384D31BDD1BEE843702A763
S1131480809C1B26F896E1271CDC1BDD43DB0389CB
S113149000DD41BD13F6CE40DD3702A7809C452612
S11314A0F89E419F1B8D368D02209B9E19EC84274C
S11314B0213304A6C026FCEF84AE8420F0DC2B9EEE
S11314C019EE84270910A3022306AE8420F31A011F
S11314D09F473926FB9E196F806F809F1B9E19BD05
S11314E016839E279F23BD15B79E1B9F1D9F1F8E8E
S11314F040B79F0BAEE410DE216FE20F2D0F2E0FCD
S1131500086E8486809708BD1751BD13D1326226B8
S1131510049E0F3285C609BD140BBD16B0DC6834B9
S113152016C6A0BD1A13BD18E7BD18E5D654CA7F68
S1131530D450D750108E153B7E198E8E2229BD2390
S1131540789D8281A426059D7CBD18E5BD23D1BD6F
S1131550198ADC3B3406868034021CAF8D609E837E
S11315609F2FA6802707813A27227E1A1BA68197E0
S1131570002772EC80DD689F83968C270F865BBD05
S113158034359668BD2530865DBD34359D7C8D022D
S113159020C827294D102A01B881FF270F819E22D8
S11315A0C9BE110C481F893A9D7C6E949D7C81971D
S11315B0102714F07E1A1B9E19301F9F3339BD3437
S11315C027270A8103271281132703977339BD3410
S11315D02727FB20EE9D8220021A0126319E839F3D
S11315E02F060032629E688CFFFF27069F299E2FDC
S11315F09F2D8E13C90D00102AFE427E1432260E32
S1131600C6209E2D1027FE169F839E299F6839278A
S11316102CBD1B8534069E279D82270CBD1A11BD47
S11316201EDC301F9C7122181F10A3E125121F031A
S113163083003A250B931B2507DF219F277E14E2A5
S11316407E141C9D821027FE94BD14E220191F896C
S11316509D7CC1A02716C1A12645C603BD140BDE7F
S1131660839E6886A134528D037E155A9D82BD17D0
S11316702F8D403001DC2B10936822029E19BD147B
S1131680C12517301F9F833926FD86FF973BBD1365
S1131690D11F148121270BC6048CC60E7E141E7E16
S11316A01A1B35529F68DF838D068C8D069F833904
S11316B0C63A865FD7015F9E831F98D6019701A61D
S11316C08427EC3404A1E027E63001812227EA4C88
S11316D026023001818626E70C0420E3BD18E59D2F
S11316E08281812705C6A2BD1A13964F26130F04C3
S11316F08DB64D27BA9D7C818426F50A042AF19D76
S11317007C9D821025FF657E1592BD1EAAC681BDF3
S11317101A13340281A1270481A026830A532605C3
S113172035047E16509D7C8D06812C27EF35849ED2
S1131730749F2B246180309701DC2B811822DB58A5
S1131740495849D32B5849DB018900DD2B9D7C2066
S1131750E2BD1AF69F3BC6AEBD1A1396063402BD0F
S113176018FA350246BD18EC10270C2B9E52DC21CA
S113177010A30224119C1B250DE684BD1CAC9E4DB8
S1131780BD1DE28E40569F4DBD1E14DE4D9E3B375F
S113179026A78410AF02393F5245444F0D007E14F2
S11317A01E960927079E319F687E1A1B8E1796BDC9
S11317B021009E2F9F8339C6169E68300127DF8D36
S11317C001398122260BBD19E8C63BBD1A13BD2180
S11317D0038E40E16F848D06C62CE7842016BD215C
S11317E013BD2110BD115A240532647E15E1C62EA5
S11317F0399E33864F97099F35BD1AF69F3B9E83CA
S11318009F2B9E35A684260996092651BD21138D4A
S1131810CD9F839D7CD60627239E83970181222713
S11318200E301F4F9701BD114C863A9701862C97B5
S113183002BD1CBDBD19EDBD176C2006BD2476BDCF
S113184023979D822706812C1026FF529E839F3565
S11318509E2B9F839D822721BD1A11209C9F83BDAF
S113186016B030014D260AC606EE812741EC81DD13
S113187031A684818626E620989E35D6091026FD59
S11318803AA68427068E188B7E2100393F4558548A
S113189052412049474E4F5245440D0026049E7440
S11318A02003BD1AF69F3BBD13D12704C600204771
S11318B01F143003BD2378A66897549E3BBD212690
S11318C0BD23973069BD23FAE068270CAE6E9F688C
S11318D0AEE8109F837E155A32E8129D82812C2631
S11318E0F49D7C8DBD8D131CFE7D1A010D06250310
S11318F02A998C2B96C6187E141E8D6E4F8C340438
S11319003402C601BD140BBD19C70F3F9D8280ADC3
S113191025138103240F810149983F913F25649742
S11319203F9D7C20E9D63F26331024006B8B07248F
S11319306799061027047789FF340248ABE08E12BA
S11319402330863502A18424558D9C34028D299E32
S11319503D3502261D4D1027006A204B0806598D7F
S1131960098E196FD73F0F0620D99E837E16836494
S11319701A93A184243120D3EC0134068D08D63F78
S113198016FF7B7E1A1BD654A68435203404D64F0A
S11319909E50DE5234546EA49E74A6E027268164C1
S11319A02703BD18E79F3D3504815A2719817D27F8
S11319B01554D70A3552975C9F5DDF5F3504D761B4
S11319C0D854D762D64F39BD2C140F069D7C2403FE
S11319D07E2476BD1B412450812E27F481A7274005
S11319E081A627E38122260A9E83BD1CB79E649F9D
S11319F0833981A3260D865ABD18FEBD1B8C435323
S1131A007E1C934C272E8D06BD18FAC6298CC62839
S1131A108CC62CE19F408326020E7CC6027E141ED7
S1131A20867DBD18FE7E264DBD1AF69F529606266B
S1131A30957E23789D7C1F89589D7CC13823037E25
S1131A401A1B3404C12A251EC130241C8DC0A6E4EF
S1131A50BD18FA8DBCBD18EA3502DE523442BD1EF3
S1131A60AA350234068E8D9E3504BE11113AAD940A
S1131A707E18E7864F9703BD1B8CDD01BD23AEBDE9
S1131A801B8C0D0326069401D40220049A01DA0269
S1131A907E1C93BD18EC261096618A7F945D975D39
S1131AA08E405CBD23FA20360F060A3FBD1DF6D7D3
S1131AB0569F589E5FBD1DF896563404A0E0270734
S1131AC086012403D656409754DE585C5A2604D621
S1131AD054200BA680A1C027F3C6FF240150CB01DC
S1131AE059D40A2702C6FF7E23E0BD1A11C6018D10
S1131AF0089D8226F5395F9D82D70597379D828D93
S1131B00401025FF165FD7069D7C25048D33250ADA
S1131B101F899D7C25FC8D2924F881242606030633
S1131B20CB809D7CD7389A088028102700750F0831
S1131B309E1BDC379C1D271210A381273E300520F5
S1131B40F381412504805B80A5398E4074EEE41155
S1131B50831A2B2728DC1FDD43C30007DD419E1DAC
S1131B609F47BD13F69E419F1F9E459F1D9E47DCC8
S1131B7037ED814F5FED84ED02A7049F39399080E2
S1131B800000009D7CBD18E596542B5DBD18E796BA
S1131B904F819025088E1B7EBD23FA264CBD242C34
S1131BA0DC5239DC053406125F9E3734148DD4358B
S1131BB0349F37DE5234605C9D82812C27EBD7033F
S1131BC0BD1A0B3506DD059E1D9C1F2721DC371031
S1131BD0A3842706EC02308B20EFC6129605260B51
S1131BE0D603E1042759C6108CC6087E141ECC0007
S1131BF005DD64DC37ED84D603E704BD140B9F4197
S1131C00C60B4F0D0527053506C30001ED058D5D97
S1131C10DD6430020A0326E89F0FD30F1025F7FC7A
S1131C201F01BD140F830035DD1F4F301FA7059C16
S1131C300F26F89E41961F9341ED029605262DE648
S1131C4004D7034F5FDD643506DD5210A305243A43
S1131C50DE6427048D17D35230020A0326E7EDE32E
S1131C6058495849E3E1308B30059F39398610973C
S1131C7045EC05DD174F5F5849250F0865096424B5
S1131C8004D31725050A4526EE397E1BE61F40932B
S1131C901F214F0F06DD50C6907E23E6BD18E7CE08
S1131CA041DEBD254032628E41DD200B9F4D8D5CAF
S1131CB09F58D75639301F86229701970230019FCB
S1131CC0629F58C6FF5CA680270C910127049102ED
S1131CD026F381222702301F9F64D756DE621183C8
S1131CE041DE22078DC69E62BD1DE49E0B8C40DF43
S1131CF02605C61E7E141E9656A700DC58ED0286E5
S1131D00FF97069F0D9F5230059F0B390F074F34E5
S1131D1006DC23A3E0109321250ADD239E23300152
S1131D209F253584C61A030727CA8D04350420DE8F
S1131D309E279F234F5FDD4B9E219F478E40B79C7C
S1131D400B27048D3220F89E1B9C1D27048D222016
S1131D50F89F419E419C1F2735EC02D341DD41A6EB
S1131D60012AF0E60458CB053A9C4127E88D082067
S1131D70F8A60130022A14E6842710EC02109323FB
S1131D80220910934723049F4BDD473005399E4BAE
S1131D9027FB4FE6845AD347DD439E239F41BD135F
S1131DA0F89E4BDC45ED029E45301F7E1D32DC5211
S1131DB03406BD19C7BD18EA35109F62E6849E52E9
S1131DC0EB842405C61C7E141EBD1CAC9E62E684F6
S1131DD08D109E4D8D228D0C9E628D1CBD1CEB7E44
S1131DE0190CAE02DE255C2004A680A7C05A26F991
S1131DF0DF2539BD18EA9E52E6848D182613AE07F6
S1131E00301F9C2326083404D323DD2335043001FA
S1131E1039AE02399C0D26079F0B301B9F0D4F399D
S1131E208D037E1C928DCC0F065D39BD1EADC6019F
S1131E30BD1D0C9653BD1CB0A78432627E1CEB8D75
S1131E400220DF8DE0275EE684398D484FE184234C
S1131E5003E6844F3406BD1CAE9E4D8D9B35043A7B
S1131E603504BD1DE420D58D2BA0844020DFC6FFA2
S1131E70D7539D8281292705BD1A118D2D8D1527D4
S1131E80245F4AA18424CD1F89E08450D15323C404
S1131E90D65320C0BD1A0BEEE4AE659F4DA664E692
S1131EA06432671F357E1BE99D7CBD18E5BD1B8828
S1131EB04D26F20E82BD1E25102702E1DE839F838C
S1131EC03AA68434526F849D82BD24763552A78409
S1131ED0DF83398D079F2BBD1A1120CEBD18E596DF
S1131EE0542BC2964F819022BCBD242C9E52398D16
S1131EF0EEE6847E1C928DDB9E2BE784393401BD93
S1131F00172FBD14BD9F66350127129D82271381AB
S1131F10A726099D7C2706BD172F270639CEFFFF6C
S1131F20DF2B32629E66BD20C4BD11B3EC84260350
S1131F307E143D9F66EC0210932B22F4BD2530BD28
S1131F4021109E668D10AE9F4066CE40E2A6C0274B
S1131F50D5BD211520F73004108E40E2A68027510C
S1131F602B15813A260DE684C18427F0C18327EC22
S1131F708C86218D3020E5CE10FF81FF2604A680BB
S1131F803345847F334A6DC427E7A0C42AF6ABC423
S1131F90EE414A2B066DC02AFC20F7A6C48D066DBF
S1131FA0C02AF820B7108C41DB2406847FA7A06FD9
S1131FB0A4399E83CE40E10F430F44A68027210D10
S1131FC043270FBD1B412418813025048139231078
S1131FD00F438120270A9742812227380D4427196D
S1131FE0A7C02706813A27CF20D16FC06FC01F300A
S1131FF08340DF8E40E09F8339813F26048687201B
S1132000DF81272613CC3A83EDC10F42A68027D067
S1132010914227CCA7C020F481302504813C25C0FF
S1132020301F34500F41CE10FF0F42334AA6C4274D
S11320303110AE41AEE4E6A0E08027FAC180263834
S113204032623540DA4296412606C1842606863A33
S1132050EDC12094E7C0C18626020C44C18227AAA0
S11320602086CE1104034126C03550A680A7C0BDEA
S11320701B4125EC034320E80C424A27AE313FE6DE
S1132080A02AFC20AF27398D0139BD2FEA273E81D4
S11320909F2753812C2737813B2760BD18FA96066A
S11320A034022606BD253DBD1CB58D573504BD1132
S11320B04C5D26089D82812C27148D549D8226CF49
S11320C0860D2051BD114C27F7966C26F339BD11AE
S11320D04C270AD66CD16B25068DE5201ED66CD014
S11320E06A24FC502010BD1EA881291026F92CBD9D
S11320F0114CD06C23058D185A26FB9D7C7E208DB7
S1132100BD1CB7BD1DF65C5A27C3A6808D0720F7FA
S113211086208C863F7E34358E26242009BD22936A
S1132120035403622003BD22935D102702808E4076
S11321305C1F895D276CD04F2769250A974F9661EC
S113214097548E404F50C1F82F594F6401BD221E41
S1132150D6622A0B63016302630363044389009715
S1132160639653996097539652995F9752965199F3
S11321705E97519650995D97505D2A4425028D5D76
S11321805F9650262E965197509652975196539794
S113219052966397530F63CB08C1282DE44F974F92
S11321A09754398D6D5F20A85C086309530952095F
S11321B05109502AF3964F3404A0E0974F23DE8C44
S11321C02508086386009763200C0C4F27280650C7
S11321D006510652065324048D0D27EE3903540389
S11321E0500351035203539E5230019F5226069EC0
S11321F05030019F5039C60A7E141E8E4012A60428
S11322009763A603A704A602A703A601A702965BE9
S1132210A701CB082FE89663C008270C6701660264
S113222066036604465C26F43981000000008D6371
S113223027608D7886009713971497159716D653B1
S11322408D22D663D78BD6528D1AD663D78AD651B0
S11322508D12D663D789D6508D0CD663D788BD230B
S11322606F7E2180279543961356272624169616AB
S11322709B6097169615995F97159614995E971417
S11322809613995D46971306140615061606634FB2
S113229020D539EC0197618A80DD5DD661D854D7A9
S11322A062EC03DD5FA684975CD64F394D27169BFD
S11322B04F464928108B80974F270C9662975439C4
S11322C096544320023262102AFED27E21F6BD23A8
S11322D0C3270D8B0225F40F62BD21310C4F27EB70
S11322E0398420000000BD23C38E22E15FD762BD84
S11322F023788C8D9E2773004F8DB10C4F27CC8E85
S11323004013C604D703C6019650915D2613965117
S1132310915E260D9652915F260796539160260191
S1132320431FA859240AE7800A032B34272EC60129
S11323301F8A250E0860095F095E095D25E32BC825
S113234020DF966090539760965F9252975F965EF7
S11323509251975E965D9250975D20D8C64020D0EA
S1132360565656D7638D087E2180C6147E141E9E51
S1132370139F509E159F52393402EC0197548A8062
S1132380DD500F63E684AE039F52D74F35828E40F3
S11323904520068E40408C9E3B964FA78496548AD7
S11323A07F9450A7019651A702DE52EF033996613C
S11323B097549E5C9F4F0F63965E975196549E5F11
S11323C09F5239DC4FDD5C9E519F5E9E539F604D52
S11323D039D64F2708D65459C6FF250150398DF1F7
S11323E0D7500F51C68896508080D74FDC74DD5289
S11323F0976397547E217C0F5439E68427D3E601F2
S1132400D8542BD1D64FE184261DE601CA7FD4507F
S1132410E1012613D651E102260DD652E103260727
S1132420D653E00426013956D85420ABD64F273D65
S1132430C0A096542A05035BBD21DF8E404FC1F82E
S11324402E06BD22120F5B390F5B96544906507E4F
S1132450221ED64FC1A0241D8DD2D7639654D754C3
S1132460808086A0974F965397017E217CD750D7C2
S113247051D752D753399E749F549F4F9F519F52A7
S11324809F479F452564BD2BB3812D26040355200A
S113249004812B26049D7C2551812E2728814526E5
S11324A0289D7C256481A7270E812D270A81A627D4
S11324B008812B2704200603489D7C254C0D4827C2
S11324C00800472004034626CC96479045974727A3
S11324D0122A09BD22E60C4726F92007BD22CE0A9E
S11324E04726F996552A8E7E264DD645D046D745A1
S11324F03402BD22CE3504C0308D022098BD239312
S1132500BD23E08E40407E2126D6475858DB4758ED
S113251080303404ABE09747209F9B3EBC1FFD9E58
S11325206E6B27FD9E6E6B28008E13BF8D0CDC68CE
S1132530DD50C69043BD23EA8D037E2100CE41DFEA
S11325408620D6542A02862DA7C0DF64975486308D
S1132550D64F102700C64FC18022088E2524BD22E5
S11325602E86F797458E251FBD24042E0F8E251A1F
S1132570BD24042E0EBD22CE0A4520F1BD22E60C58
S11325804520E2BD2118BD242CC60196458B0A2B9B
S113259009810B24054A1F8986024A4A9747D74571
S11325A02E0DDE64862EA7C05D27048630A7C08E5C
S11325B02629C6809653AB0397539652A902975285
S11325C09651A90197519650A98497505C56592861
S11325D0E32403C00B50CB2F30041F98847FA7C083
S11325E00A452604862EA7C053C4808C264D26C4D3
S11325F0A6C2813027FA812E2602335F862BD64766
S1132600271C2A03862D50A7428645A741862F4CB6
S1132610C00A24FBCB3AED436F452004A7C46F41A5
S11326208E41DF398000000000FA0A1F00009896EE
S113263080FFF0BDC0000186A0FFFFD8F0000003BA
S1132640E8FFFFFF9C0000000AFFFFFFFF964F27F3
S1132650020354399F64BD23938D058D088E404039
S11326607E222E9F64BD238E9E64E680D7559F6490
S11326708DEE9E6430059F64BD21268E40450A552B
S113268026EE39BD23D12B1F27158D10BD23938D25
S11326900E8E40408DCA8E2229BD21267E24529E54
S11326A09F9F509EA19F52BE26D49F5DBE26D69F5B
S11326B05FBD2234DC8AC3658BDDA1DD52DC88C9B1
S11326C0B08905DD9FDD500F548680974F9615978E
S11326D0637E218040E64DABBD23C38E271DD661AA
S11326E0BD22EDBD23C38DB40F62965CD64FBD21D0
S11326F0208E2722BD211D965434022A09BD21189B
S113270096542B05030ABD264D8E2722BD2126355E
S1132710024D2A03BD264D8E27277E265483490F5A
S1132720DAA27F000000000584E61A2D1B86280724
S1132730FBF88799688901872335DFE186A55DE782
S11327402883490FDAA2A154468F138F524389CDAF
S11327508E2783BD21267E26D8BD23930F0A8DF6AE
S11327608E404ABD23998E4040BD23780F54960A6B
S11327708D0C0D4F1027FA7E8E404A7E22F33402D0
S11327807E270681490FDAA2965434022A028D2448
S1132790964F3402818125058E22298DDE8E27B83D
S11327A0BD26543502818125068E2783BD211D3522
S11327B0024D2A037E264D390B76B383BDD3791E91
S11327C0F4A6F57B83FCB0107C0C1F67CA7CDE5337
S11327D0CBC17D1464704C7DB7EA517A7D63308837
S11327E07E7E9244993A7E4CCC91C77FAAAAAA13C2
S11327F08100000000037F5E56CB7980139B0B643D
S113280080763893168238AA3B20803504F33481CD
S11328103504F334808000000080317217F8BD2342
S1132820D1102FF3C48E280A964F808034028680FC
S1132830974FBD21268E280FBD22F38E2229BD215C
S11328401D8E27F5BD26548E2814BD21263504BDC2
S113285024FD8E28197E222EBD23C38E2624BD235B
S11328607827674D26037E219E8E404ABD23995FBB
S113287096612A10BD24528E404A9661BD240426D6
S11328800343D601BD23B03404BD281E8E404ABD87
S1132890222E8D363502461025FDB2398138AA3BE9
S11328A029077134583E5674167EB31B772FEEE316
S11328B0857A1D841C2A7C6359580A7E75FDE7C6F7
S11328C0803172181081000000008E289CBD222ED9
S11328D0BD2393964F818825037E22C0BD24529642
S11328E0018B8127F44A34028E4040BD211D8E287D
S11328F0A1BD26630F623502BD22AC39BD23D12BA5
S1132900037E245203548DF97E264DBD2D39326247
S113291086019798BD14BD1025ED7FBD1F561F205D
S11329208340E3D797DC2BBD2530BD21108E40E2D8
S1132930D69826255FBD2A5FBD3204250B8030342E
S113294002860A3DEBE020EDC001C9018141260564
S1132950BD20C020BB814C260B8D310F98BD20C0FB
S113296020C33262810D260D8D22BD20C08E40E22F
S11329709F837E1466814527F181512606BD20C0C0
S11329807E143D8D0220AD812026108CC6F9A684CC
S11329902708BD343530015A26F439814426486D60
S11329A08427F78D045A26F7390A97311F3121A657
S11329B021A7A426F839814927138158270D814876
S11329C0265C6F841F108340E3D7978DBFBD2A5FB9
S11329D0810D278E811B2725810826228C40E22722
S11329E0EC8D458DC420E6814326CB6D84270EBD36
S11329F02A5F250220F5A7808D375A26EE39D6970F
S1132A00C1F9260220C734106D8026FCE682E70156
S1132A10ACE426F83262A7808D170C9720AF8108AA
S1132A2026128D045A26FB398C40E227D0301F86AB
S1132A30087E3435814B2705805327013934028DB4
S1132A401E3402A68427166D6126068DE43001200B
S1132A5003BD29A9A684A1E426E95A26E635A0BD2A
S1132A603453817F24F9815F2602861B810D270E52
S1132A70811B270A81082706812025E31A0139864C
S1132A804F978C398600D6791D7E1C93BD1A0EDCB7
S1132A901F3406BD1AF6BD1A0B35061E109C1F26E0
S1132AA0517E1C939D7CBD1A0EBD1AF63410EC02A7
S1132AB0109321230493272312E684BD1D0C3410A4
S1132AC0AE62BD1DE23550AF423440BD1ED7340462
S1132AD05D271FC6FF81292703BD1ED73404BD1AF5
S1132AE00BC6AEBD1A138D2E1F13AE62A684A06151
S1132AF024037E1BE94CA1E42402A7E4A6611E89F9
S1132B00AE025A3A4D270DA1E42302A6E41F891E02
S1132B1031BD11CA3596BD18FA7E1DF3BD1A0EBD1E
S1132B201EAA3404BD1A11BD18FABD1A0B96062646
S1132B3005BD1EAD2003BD1E433404E661BD1CAEBD
S1132B4035062705A7805A26FB7E1E3ABD1A0EBD00
S1132B5018FAC601340496062610BD1EADE7E42714
S1132B6091BD1A11BD18FABD18EA9E523410BD1A4F
S1132B7011BD2B163414BD1A0BAE63BD1DF83404FD
S1132B80E1662523A661271CE6665A3A3184EE6283
S1132B90E661A6E4A0664CA161250CA680A1C0262E
S1132BA00C5A26F7E666215F32677E1C926C66300B
S1132BB02120D98126265C32620F520F538E405257
S1132BC09D7C814F2712814827239D82200C8138C8
S1132BD01022EE47C6038D2A9D7C25F20F500F511B
S1132BE00F060F630F54C6A0D74F7E21809D7C250E
S1132BF00BBD1B4125E6814724E28007C6048D02F4
S1132C0020EB680169841025F5EC5A26F58030AB79
S1132C1001A7013935400F069E839D7C81262799A3
S1132C2081B0275E81FF26089D7C8183102700AB3D
S1132C309F836EC49E68300126D9C6167E141EAECC
S1132C409F40838CFF83102700748D238DE6BD1A6B
S1132C500EC680D708BD1AF68D25BD1A0BC6AEBDAB
S1132C601A139E4BDC83ED84DC39ED027E16A8C674
S1132C70B0BD1A13C680D7088A80BD1AFB9F4B7E4D
S1132C8018E78DEB3410BD1A068DF43540C632AE0C
S1132C904227A9109E83EEC4DF83A6043402EC8489
S1132CA0EE023476BD2399BD18E53576ED84EF0246
S1132CB03502A7049D821026ED61109F83399D7C07
S1132CC08D0934108D2D3540AFC4395F9D7C2406A9
S1132CD080301F899D7C9E8D583A398DEEAE8434A8
S1132CE010BD1A068E404F96062707BD1DF69E524C
S1132CF0960639C6AEBD1A137E1EDC1027EEEABD59
S1132D00172FBD14BD9F939D82271081A7263B9D3D
S1132D107C27048D24200486FF972BDE938CEEC43D
S1132D20ECC42706EC42932B23F49E938D15BD141B
S1132D30DD9E93BD14AD7E143DBD172F7E11D3A629
S1132D40C0A78011931B26F79F1B39BD2C349D7C93
S1132D508122260BBD19E8C63BBD1A13BD210332DF
S1132D607EBD17E43262BD1AF69F3BBD18EA8E4061
S1132D70E14FBD1CBB7E176CBD172F9E2B399E9156
S1132D809F2B7E14BDBD14E2CC000ADD95DD8F5F60
S1132D90DD919D8224068DE09F959D82271BBD1A9F
S1132DA01124068DD39F919D82270EBD1A112406EE
S1132DB08DC69F8F2749BD11D38DC39F939E958D3B
S1132DC0BF9C93253A8D1CBD2E59BD14AB8DAF9F6E
S1132DD0938D3A8D0F8D36BD2EF4BD14E2BD14AB28
S1132DE07E143D864F97989E93DC958D150D9826FD
S1132DF002ED02AE848D0BD38F250481FA25EE7E7D
S1132E001BE93406EC84350626023262399E1930F9
S1132E101F30018DED30033001A68427F49F0F4A43
S1132E20270C4A272A4A26EF8603A78020E7EC01CD
S1132E306A0227014FE6036A0427015FED01DD2BD7
S1132E40BD14BD9E0F25E1DC476C80ED8420C66F68
S1132E5084AE01AE029F4720EA9E1920049E83306F
S1132E60018D9F300230019F839D7C4D27EF2AF90D
S1132E709E8381FF27EF81A227128184270E8181FF
S1132E8026E79D7C81A0270481A126DB9D7C250467
S1132E909D8220D79E833410BD172F9E83A682BDAA
S1132EA0320425F930011F10E061C0052720250AEE
S1132EB03384503085BD2D4320149F479E1B9F4370
S1132EC05030859F419F1BBD13F69E459F8335104F
S1132ED08601A784A702A704D62B2604C6016C0288
S1132EE0E701D62C2604C6016C04E7039D82812CDD
S1132EF0279A209C9E19301F3001EC02DD68BD2EFC
S1132F000230033001A68427EF4A271B800226F3F0
S1132F1034108E2F51BD2100AEE4EC01BD2530BD2F
S1132F202529BD20C035103410EC01DD52BD2BDC49
S1132F30BD253D3540C6053001A68427055AA7C0E6
S1132F4020F530C45D27BE31C433C5BD2D4330A444
S1132F5020B3554C2000BD1EDF8E41DEC604340470
S1132F605F860408530952594A26F85D260AA6E4E6
S1132F704A27058C41DE270CCB30C1392302CB070D
S1132F80E7806F8435045A26D532628E41DD7E1C7B
S1132F90B7860197995ABD31329D8210270093D785
S1132FA093BD18FABD18EA9E529F4DD699BD1E4C8A
S1132FB0BD21039E52D699E0845A102B014FBD21A6
S1132FC01020F6D7939F0F86029799A68481252710
S1132FD0C4812026070C9930015A26EF9E0FD69300
S1132FE08625BD3132BD3435202981B127013932DE
S1132FF062BD18FCBD18EAC63BBD1A139E529F95CC
S11330002006969727089E950F97E68426037E1B35
S1133010E9AE020F9A0F99A68081211027FF7281D1
S113302023275B5A2616BD3132BD34359D8226D204
S113303096972603BD20C09E957E1DF8812B2609F8
S1133040BD31328608979A20CC812E274E812510D7
S113305027FF70A184268B81242719812A26F696BE
S11330609A8A20979AC1022511A6018124260B5A17
S113307030010C99969A8A10979A30010C990F98FE
S11330800C995A2749A680812E271E812327F18176
S11330902C2621969A8A40979A20E5A684812310AB
S11330A026FF3F8601979830010C985A2720A68066
S11330B0812327F5815E2616A1842612A101260EFE
S11330C0A102260AC1042506C00430040C9A301F4C
S11330D00C99969A850826180A995D2713A6848068
S11330E02D270681FE260986088A049A9A979A5AF9
S11330F09D821027FF3CD793BD18E596999B988134
S1133100111022EAE4BD313F301FBD21000F979D0D
S113311082270D9797813B2705BD1A1120029D7CBC
S11331209E95E684D093AE023AD6931026FEE47EB2
S1133130302C3402862B0D9A2703BD34353582CECC
S113314041E0C620969A85082702C62B0D542A040E
S11331500F54C62DE7C0C630E7C08401102601070E
S11331608E2524BD24042B15BD253DA68026FCA652
S113317082A7018C41DF26F78625A78439964F97CD
S1133180472703BD33279647102B0081409B998026
S113319009BD3244BD33BDBD335C9647BD33DB96B8
S11331A047BD33A396982602335F4ABD3244BD32ED
S11331B0DF4D2706C12A2702E7C06FC48E41DF30E6
S11331C0019F0F963A901090992738A68481202762
S11331D0EE812A27EA4F3402A680812D27F8812B1D
S11331E027F4812427F08130260EA6018D162508A8
S11331F03502A78226FA20C735024D26FB9E0F868C
S113320025A7823981302504803A80C639969827CB
S1133210014A9B472B014F34022A0A3402BD22E69D
S113322035024C20F49647A0E097478B092B19965A
S113323099800990478D0DBD33BD201D3402863021
S1133240A7C035024A2AF53996998DF8BD33A78669
S1133250F790478DEF0F450F97BD335C9698260284
S1133260DE399B4716FF43964F34022703BD3327AD
S1133270969827014A9B997F41DFD69AC404260376
S11332807341DFBB41DF800934022A0A3402BD22C4
S1133290E635024C20F4A6E42B014F409B994CBB2D
S11332A041DF97450F97BD335C3502BD33DB9698FC
S11332B02602335FE6E02709D647CB09D099F041CF
S11332C0DF862B5D2A03862D50A7418645A7C1863C
S11332D02F4CC00A24FBCB3AEDC16FC47E31AE8EB5
S11332E041E0E68434048620D69AC52035042708B4
S11332F0862AC12026021F893404A780E684271069
S1133300C145270CC13027F2C12C27EEC12E26045B
S11333108630A782969A85102704C624E7828404FF
S113332035042602E7823934404F9747D64FC1808F
S113333022118E2524BD222E9647800920ECBD2221
S1133340E60C478E251FBD24042EF38E251ABD24BA
S1133350042E07BD22CE0A4720F135C03440BD21DA
S113336018BD242C35408E2629C6808D369653AB45
S11333700397539652A90297529651A901975196D1
S113338050A98497505C565928E32403C00B50CBB2
S11333902F30041F98847FA7C053C4808C264D26E9
S11333A0CA6FC40A452609DF39862EA7C00F97398C
S11333B00A97260886039797862CA7C03996478BC9
S11333C00A97454C800324FC8B059797969A844072
S11333D0260297973934028DCA35024A2B0A3402E1
S11333E08630A7C0A6E026ED3981891027F95C7ED6
S11333F01A1B004D4943524F534F465420424153E8
S1133400494320464F522050554750555445522D5C
S113341036333039204255494C54204445432031F9
S113342031203230323200340886001F8BBDFEA3B7
S1133430847F350839810D27080C79967991782590
S1133440020F793402340886001F8B3502BDFEA9B1
S10C3450350839BD342727FB3986
S5030246B4
S9030000FC
