S02400005B6C77746F6F6C7320342E32305D206A696E676C655F626973717769742E61736DC1
S11310008600C600118600BD10FF8608C640118602
S113101000BD10FF86BDC600118600BD10FF86000E
S1131020C600118601BD10FF8608C640118601BDA9
S113103010FF86BDC600118601BD10FF8E1130A6BB
S113104080815A2765815E2761815F2750816127EE
S11310503D8162272F816327218180271381702D91
S11310605381802C4F840F4C1F82BD11267E10B4F7
S1131070108E002DBD11267E10B4108E0372BD118A
S1131080267E10B4108E02DFBD11267E10B410AE81
S1131090811F201E891F02BD11267E10B4A680E682
S11310A080118601BD10FF7E10B4A680E6801186F3
S11310B000BD10FFBDFEA3811B27078C16DF102681
S11310C0FF7D8600C600118600BD10FF8608C6405D
S11310D0118600BD10FF86BDC600118600BD10FF3D
S11310E08600C600118601BD10FF8608C640118621
S11310F001BD10FF86BDC600118601BD10FF391168
S113110081002711B7FFE21212121212F7FFE31245
S11311101212121239B7FFE01212121212F7FFE183
S1131120121212121239C6115A26FD313F26F7390E
S11311305AB0005AB1005AB2005AB3005AB4005A15
S1131140B5005AB6005AB7005AB8005FB0005FB194
S1131150005FB2005FB3005FB4005FB5005FB6002C
S11311605FB7005FB8005A04605A04805F05005FEF
S113117005015F05005A01205F05015ABDC05F04E7
S11311803F5A20215A21305A22305A23615A24A02E
S11311905A25A05A28A15A29615A2A615A2B215A40
S11311A02C215A2D215A30315A31315A32315A3385
S11311B0315A34345A35345A40165A41985A42985E
S11311C05A43095A44085A45085A488A5A49925A6D
S11311D04A925A4B005A4C065A4D065A508D5A514F
S11311E00A5A520A5A53005A54055A550A5A60C2A6
S11311F05A61615A62615A63CF5A64645A65645A87
S113120068745A69655A6A655A6B7F5A6C655A6D77
S1131210655A70F15A71A85A72A85A73F15A74D265
S11312205A75D25A80355A81035A82035A830A5A0C
S113123084175A85175A88455A89175A8A175A8B18
S1131240085A8C175A8D175A90E85A91105A9210CE
S11312505A93785A94B95A95B95AA0585AA1B05A7F
S1131260A2035AA3585AA4B05AA5035AA6B05AA71F
S1131270035AA8B85AB0215AB12E5AB22E5AB321E1
S11312805AB42E5AB52E5AB6225AB73A5AB8325AC6
S1131290C03E5AC13E5AC22E5AC33F5AC43F5AC5D1
S11312A02F5AC63A5AC7365AC8365AE0005AE1028B
S11312B05AE2025AE3005AE4025AE5025AE8005A92
S11312C0E9015AEA015AEB005AEC005AED005AF0CF
S11312D0005AF1005AF2005AF3005AF4015AF50187
S11312E05F300E5F33005F40BF5F41BF5F42BF5F4F
S11312F0439E5F449E5F459E5F48BF5F49BF5F4A10
S1131300BF5F4BBF5F4CBF5F4DBF5F50005F51BFBE
S11313105F52BF5F53005F54BF5F55BF5F701E5F76
S113132073185F90005F93FE5FA6635FB6335FC67A
S11313303E5FF0005FF30361E7235F31315F510AE1
S11313405F71A85F91105FF1005F34345F54055FF3
S113135074D25F94B95FF4015FA7635FB7375FC767
S11313603661601D5AB71A6144035F20215F40163D
S11313705F60C25F80355FA0635FB0275FC03E5F80
S1131380E0005F23615F32315F43105F520A5F63A5
S1131390CF5F72A85F830A5F92105FA3635FB32776
S11313A05FC33F5FE3005FF2005A44055A540A5F8B
S11313B035345A45055F55055F75D25F95B95FF5BC
S11313C0015AA7B85AB7365AB8125F28A15F488A9B
S11313D05F68745F88455FA8B05FB83A5FC8365FDE
S11313E0E8005F2B215F4B095F6B7F5F8B085FEB2E
S11313F0005A4C035A4D0361D9165A528D5A72F150
S11314005A92E85A35315A55005A75F15A95785A14
S1131410F5005AB6025AA8B05AB8265AC83A61CB4F
S1131420095FB6136187065FB7176144035AB7169D
S11314305FB81A6195135F518D5F71F15F91E85F39
S113144043095A44035F34315A45035F54005F74BF
S1131450F15F94785FF4005FA7B05FB7225FC73A8B
S11314605AB8065F4B005A4C015A4D0161CE475A97
S113147054055F550A5AA7655AB7365FA86D5FB819
S1131480335A4C005A4D006195135AB6265FB70281
S113149061CB095A520A5A72A85A92105A35345AD0
S11314A055055A75D25A95B95AF5015AA8435AB8EE
S11314B0365AC83661E7235AA0325AB0275F212131
S11314C05F41165A518D5F510A5F61C25A71F15FD3
S11314D071A85F81355A91E85F91105FA16C5AB190
S11314E00E5FB0075FB1215FC13E5FE1005AB20EEB
S11314F05F22305F42985F62615F82035FA2045A99
S1131500A3325AB3275FB3075FB22F5FC23E5FE2D5
S1131510025A34315A54005A74F15A94785AB40E17
S11315205AF4005F24615F25A05F34345F44095F8F
S1131530451F5F54055F64CF5F65645F74D25F8449
S11315400A5F85175F94B95FA46C5FA5045AB50E52
S11315505FB4215FB52F5FC43F5FC53F5FE4005FA9
S1131560E5025FF4015AB6065AA7045FA7045AB706
S1131570235FB7375AC73A5FC7365AA8045AB837F1
S11315805F29A15F498A5F69745F89455FE9005FEC
S11315902A615F4A925F6A655F8A175FEA015F2C7E
S11315A0215F2D215F4C005F4D1E5F6C7F5F6D6579
S11315B05F8C085F8D175FEC005FED006187065F4D
S11315C0B813611C1A5FA8D85FB83361E7235AB017
S11315D0075A21215A41165A61C25A81355FA082A5
S11315E05AA1045FB1015FB0215AB1275AE1005FEB
S11315F0A3825AB3075FB3215A24615A44095A6437
S1131600CF5A840A5AA4045AB4275AE4005F4512F4
S11316105FB4015AA8435AB83A5A29A15A498A5A76
S113162069745A89455FA80D5FB82B5AE9005A6C52
S11316307F5A8C085F4D106152105FB717615210CA
S11316405FB73B61D9165AB81A61CB095F45075F8A
S11316504D056187065FB71B6100005F45115F4D53
S11316600F61D9165FB0015A22215A42165A62C23A
S11316705A82355AB2265AC23E5AE2005FB3015A20
S113168025615A451B5A65CF5A850A5AB5265AC54B
S11316903F5AE5005A2AA15A4A8A5A6A745A8A4514
S11316A05AEA005A4D165A6D7F5A8D0861B22D5F61
S11316B0B20F5A45095FB50F5A4D0061CE475AB271
S11316C0065A440B5AB5065A4C03618A445AB10768
S11216D05AB40761C03A5FB80B61CB095AB7032C
S503006E8E
S9030000FC
