S01F00005B6C77746F6F6C7320342E32305D2074696D655F746573742E61736DD3
S11110008E10067E1076000000066FD76EE09C
S10D1076BDFEA3811B272C8E104E33
S1131080BDFEC18E104EBD11EA108E100EBD10AA09
S1131090860DA7A0860AA7A08600A7A0108E100E12
S11310A0BDFEACBDFEAF7E10763934108E106EA638
S11310B080BD10F6A680BD10F6862DA7A0A680BD23
S11310C010F6862DA7A0A680BD10F68620A7A0A6A0
S11310D080BD10F6863AA7A0A680BD10F6863AA772
S11310E0A0A680BD10F6862EA7A0A680BD10F68609
S11310F000A7A43510391F894444444481092302BC
S11311008B078B30C40FC1092302CB07CB30A7A0B8
S1131110E7A039C6FF5C800A24FB8B0A585858584C
S1131120A7E2EBE039EC20108600001037602619A6
S1131130EC221037602612EC2410A600103760262B
S113114008EC2610A602103760391CFE10EC241E91
S11311500610A2021E0610A20010ED2410EC201EA0
S113116006108200001E061082000010ED2039FDDA
S11311701064108300042D20830004270220F3FC54
S11311801064118D644D2617FC1064108301902D9A
S113119007830190270920F3FC10641CFE2005FC42
S11311A010641A01391E2850001E133800BD116F37
S11311B024048E11A5398E11A939001518000000D8
S11311C0E1001F1C1F1E1F1E1F1F1E1F1E1F1F1D91
S11311D01F1E1F1E1F1F1E1F1E1F00060C13191F7C
S11311E0262C32383E454B51585E343610EC0010F4
S11311F0FD105610EC0410FD105ACC07B2FD10641B
S11312007F10667F10677F106A7F106B7F106C7F82
S113121010687F1069108E1056BD11ADBD112525C3
S11312200DBD114AFC1064104CFD106420EB8E11AE
S1131230BABD1125250DBD114AFC1066104CFD10D8
S11312406620EB8E11BEBD11252508BD114A7C1008
S11312506A20F0CD0000000010A626118E03C011F4
S1131260F7106BED26EC26118D10F7106C1F80F72C
S1131270106DFC1066FD105EFC1064BD116F250539
S11312808E11C220038E11CEFC105EFC105E1086FF
S1131290000011E68410B7106010B310602D0DB378
S11312A01060FD105E30017C106820DF7C1068FC4B
S11312B0105EF710697C1069FC1064118D64B7101E
S11312C062F71063B61063BD1113F7106EB61062A7
S11312D0BD1113F7106FB61068BD1113F71070B677
S11312E01069BD1113F71071B6106ABD1113F71010
S11312F072B6106BBD1113F71073B6106CBD1113D9
S1131300F71074B6106D8E11DAA686BD1113F7109E
S107131075353639BC
S503002CD0
S9030000FC
