S01E00005B6C77746F6F6C7320342E32305D206E657762617369632E61736D56
S10610007E9038A3
S11390008D0327FC39BDFEA3847F39BDFEAF340236
S1139010810D270EBDFEA97C107CB6107CB1107B9F
S113902025137F107CBDFEAF860DBDFEA9BDFEAF2E
S1139030860ABDFEA9350239B610718155260BBECC
S11390401072A684811226026E848E10036F808CA7
S1139050121A26F98E121A6F80BF101C8E9000BF50
S11390601074BF102ABF10263089FF38BF10243473
S1139070028630BDFEA935028E90E6CE1079C61266
S1139080BD91D434028631BDFEA935023402863244
S1139090BDFEA935028639B710F3BD9508340286A2
S11390A033BDFEA935028E10B8BF1090CE9D15C6F3
S11390B00AEF815A26FB34028634BDFEA93502BD6F
S11390C0900034028635BDFEA935028E911DBDE4A3
S11390D0298E90DEBF10728655B71071200412BD20
S11390E0952A7E945A3B104050009D157C1087268B
S11390F0037C1086B600007E91E67E91E57E90E5C5
S11391007E9D15804FC7525932924593521D92E568
S113911091F60000000000000000000000000D3681
S113912038303920455854454E4445442042415333
S113913049430D2843292031393832204259204DE2
S11391404943524F534F46540D0D003416BE107907
S1139150FC107BBF106DF7106FB7107035967F1041
S1139160768E10F7C601BD9000810826075A27EEB7
S1139170301F20348115260A5A27E38608BD900B38
S113918020F681031A012705810D260D4F3401BDF8
S1139190E3E26F848E10F63581812025C9817B241A
S11391A0C5C1FA24C1A7805CBD900B20B92706BDB8
S11391B0A07ABF107D6E9F107D7E9615B610762620
S11391C003BD90057F1076B7105610260DF0B7102A
S11391D0597E9FCBA680A7C05A26F93939BD108580
S11391E027FA7E9B013B813A240B812026037E10C3
S11391F07F803080D039E7BDE848E7DE10B0EAC2AE
S1139200EB27A0909FAF9DE7A04E9FD09FBBEBE2C2
S1139210EBA6EBAFED2BED60EC7AEEF4ECB6F430AC
S11392209FDB9FF9A00091BC9DD5EEFDEFC3EF92AB
S113923079E45479E4497BE5997BE6947FECBF506B
S11392409B5F469B5E464FD247CF5245CDA7454CC8
S113925053C549C6444154C15052494ED44FCE49D6
S11392604E5055D4454EC44E4558D44449CD52452C
S113927041C45255CE524553544F52C5524554558C
S113928052CE53544FD0504F4BC5434F4ED44C49FC
S113929053D4434C4541D24E45D7455845C3545207
S11392A04FCE54524F46C64445CC4445C64C494E15
S11392B0C552454E55CD454449D4544142A854CF96
S11392C05355C2544845CE4E4FD4535445D04F46BF
S11392D0C6ABADAAAFDE414EC44FD2BEBDBC46CE76
S11392E05553494EC75347CE494ED44142D35553A3
S11392F0D2524EC45349CE504545CB4C45CE53541F
S113930052A45641CC4153C3434852A44154CE4382
S11393104FD35441CE4558D04649D84C4FC7504FEF
S1139320D35351D2484558A44C454654A4524947B6
S11393304854A44D4944A4494E4B4559A44D45CDE8
S11393405641525054D2494E5354D2535452494E1A
S113935047A4954396BA972497249724975B97211B
S1139360E3A497909857962D99579BED989296AEB3
S1139370960C96FE9632A097965FE2009674950638
S113938091ADEEEEEEEFF197F0CAF93BF230ED70ED
S11393904E46534E52474F4446434F564F4D554CFD
S11393A0425344442F304944544D4F534C53535427
S11393B0434E4644414F444E494F464D4E4F494516
S11393C0445355464E45204552524F520020494E73
S11393D020000D4F4B0D000D425245414B003064AF
S11393E0C612BF1012A6848080261BAE01BF1014C3
S11393F0BE103E270BBC1014270CBE10123A20E0FE
S1139400BE1014BF103EBE10124D398D1CFE104408
S11394103341BE10463001A6823602BC104A26F7FC
S1139420FF1048394F58F31022C3003A250A10FFA1
S1139430101A10B3101A25EBC60CBD952ABDE3E62D
S1139440BDE43C8E93903A8D358D338E93C5BDE447
S113945029B6106B4C2703BDE947BDE3E68E93D2D2
S1139460BDE429BD915ECEFFFFFF106B25F5BF1053
S113947086BD107F27ED250BBDE2BD7E95DEA6805F
S11394807EE43EBD97B9BE102EBF10F4BDE2BDF719
S113949010068D592516FC104AA384F3101EFD10E6
S11394A01EEE843702A780BC101E26F7B610F627DE
S11394B023FC101EFD1046FB10068900FD1044BD60
S11394C0940BCE10F23702A780BC104826F7BE10CA
S11394D044BF101E8D3C8D022089BE101CEC8427D5
S11394E0243304A6C026FCEF84AE8420F0FC102EA6
S11394F0BE101CEE84270910A3022306AE8420F3B9
S11395001A01BF104A3926FABE101C6F806F80BF43
S1139510101EBE101CBD96F8BE102ABF1026BD96A4
S11395200CBE101EBF1020BF10228E10CCBF100E18
S1139530AEE410FE10246FE27F10307F10317F10F4
S11395400B6E848680B7100BBD97E3BD93DE326249
S11395502605BE10123285C609BD9424BD972AFC87
S1139560106B3416C6A0BD9AF8BD99AABD99A8F689
S11395701057CA7FF41053F71053108E95817E9ABA
S1139580618EE591BDE73ABD108581A42606BD1024
S11395907FBD99A8BDE7AEBD9A5DFC103E3406863A
S11395A08034021CAF8D6EBE1086BF1032A6802799
S11395B007813A27297E9B01A681B7100310270053
S11395C080EC80FD106BBF1086B6108F2710865B71
S11395D0BD900BB6106BBDE94F865DBD900BBD1001
S11395E07F8D0220BE272D4D102A01F781FF271001
S11395F0819E22C1BE910B481F893ABD107F6E9493
S1139600BD107F81971027590E7E9B01BE101C3020
S11396101FBF103639BD9005270B81032714811312
S11396202704B7107639BD900527FB20EDBD1085C2
S113963020021A01263DBE1086BF10327610033276
S113964062BE106B8CFFFF2709BF102CBE1032BF07
S113965010308E93D67D1003102AFDFE7E944E2684
S113966012C620BE10301027FDD0BF1086BE102CAD
S1139670BF106B392732BD9CA23406BE102ABD1020
S113968085270DBD9AF6BDA07A301FBC1074221B2D
S11396901F10A3E125151F0383003A250EB3101EE6
S11396A02509FF1024BF102A7E95187E9438BD101A
S11396B0851027FE5DBD9518201E1F89BD107FC132
S11396C0A0271AC1A11026004DC603BD9424FE1084
S11396D086BE106B86A134528D037E95A3BD108582
S11396E0BD97B98D483001FC102E10B3106B2203C6
S11396F0BE101CBD94F32519301FBF10863926FDFA
S113970086FFB7103EBD93DE1F148121270BC604CC
S11397108CC60E7E943A7E9B013552BF106BFF10AF
S1139720868D078C8D07BF108639C63A865FF71081
S1139730045FBE10861F98F61004B71004A6842791
S1139740E83404A1E027E23001812227E84C260214
S11397503001818626E77C100720E2BD99A8BD1060
S11397608581812705C6A2BD9AF8B6105226177FB7
S113977010078DAD4D27B2BD107F818426F47A1079
S1139780072AEFBD107FBD10851025FF507E95E59B
S1139790BDA042C681BD9AF8340281A1270681A0EA
S11397A01026FF727A1056260535047E96BCBD102D
S11397B07F8D06812C27ED3584BE1077BF102E24B3
S11397C0708030B71004FC102E811822D3584958E9
S11397D049F3102E5849FB10048900FD102EBD10CA
S11397E07F20DCBD9BF7BF103EC6AEBD9AF8B61015
S11397F0093402BD99BE350246BD99AF10274F5EAC
S1139800BE1055FC102410A3022413BC101E250EF8
S1139810E684BD9DF7BE1050BD9F688E1059BF10E1
S113982050BD9FA0FE1050BE103E3726A78410AF37
S113983002393F5245444F0D007E943AB6100C272E
S113984009BE1034BF106B7E9B018E9831BDE42994
S1139850BE1032BF108639C616BE106B300127D930
S11398608D01398122260BBD9ACAC63BBD9AF8BD2B
S1139870E42C8E10F66F848D06C62CE7842017BD69
S1139880E43CBDE439BD915E240532647E963CC659
S11398902E39BE1036864FB7100CBF1038BD9BF75B
S11398A0BF103EBE1086BF102EBE1038A684260AF6
S11398B0B6100C265FBDE43C8DC5BF1086BD107F7D
S11398C0F610092728BE1086B7100481222710300D
S11398D01F4FB71004BD914B863AB71004862CB7BE
S11398E01005BD9E0DBD9AD0BD98002006BDE87739
S11398F0BDE75EBD10852706812C1026FF3BBE10F8
S113990086BF1038BE102EBF1086BD10852723BD1C
S11399109AF62089BF1086BD972A30014D260BC6C2
S113992006EE812746EC81FD1034A684818626E468
S11399302088BE1038F6100C1026FCD5A684270605
S11399408E99467EE429393F45585452412049476F
S11399504E4F5245440D002605BE10772003BD9B93
S1139960F7BF103EBD93DE2704C600204E1F1430FF
S113997003BDE73AA668B71057BE103EBDE451BD1B
S1139980E75E3069BDE7E2E068270EAE6EBF106B9C
S1139990AEE810BF10867E95A332E812BD10858113
S11399A02C26F3BD107F8DB68D141CFE7D1A017D0F
S11399B0100925032A908C2B8DC6187E943A8D7A33
S11399C04F8C34043402C601BD9424BD9AA77F1081
S11399D042BD108580AD251781032413810149B848
S11399E01042B11042256EB71042BD107F20E5F63B
S11399F010422635102400768B072472B910091002
S1139A0027052B89FF340248ABE08E92303086352F
S1139A1002A18424608D9334028D2EBE1040350241
S1139A2026214D1027007C2056781009598D0B8E65
S1139A309A40F710427F100920D5BE10867E96F812
S1139A40649B85A184243820CEEC0134068D09F66C
S1139A50104216FF6D7E9B01F61057A68435203404
S1139A6004F61052BE1053FE105534546EA4BE10AA
S1139A7077A6E0272E81642703BD99AABF1040353D
S1139A8004815A2721817D271D54F7100D3552B7C3
S1139A90105FBF1060FF10623504F71064F81057B0
S1139AA0F71065F6105239BDF0997F1009BD107F8B
S1139AB024037EE877BD9C512454812E27F481A78A
S1139AC0274481A627E18122260DBE1086BD9E056E
S1139AD0BE1067BF10863981A3260D865ABD99C270
S1139AE0BD9CAA43537E9DDC4C27318D06BD99BE97
S1139AF0C6298CC6288CC62CE19F108626037E10AE
S1139B007FC6027E943A867DBD99C27EEA82BD9B61
S1139B10F7BF1055B61009268D7EE73ABD107F1F9A
S1139B208958BD107FC13823037E9B013404C12AA8
S1139B30251FC130241D8DBBA6E4BD99BE8DB7BDC4
S1139B4099AD3502FE10553442BDA04235023406AB
S1139B508E8D983504BE91103AAD947E99AA864FA5
S1139B60B71006BD9CAAFD1004BDE77BBD9CAA7D71
S1139B7010062608B41004F410052006BA1004FADE
S1139B8010057E9DDCBD99AF2613B610648A7FB4A0
S1139B901060B710608E105FBDE7E220407F1009AF
S1139BA07A1042BD9F7EF71059BF105BBE1062BD94
S1139BB09F81B610593404A0E0270886012404F6D6
S1139BC0105940B71057FE105B5C5A2605F6105723
S1139BD0200BA680A1C027F2C6FF240150CB015957
S1139BE0F4100D2702C6FF7EE7BFBD9AF6C6018DAD
S1139BF00ABD108526F4395FBD1085F71008B7102B
S1139C003ABD10858D4B1025FEF75FF71009BD1086
S1139C107F25048D3C250B1F89BD107F25FB8D31CD
S1139C2024F781242608731009CB80BD107FF71018
S1139C303BBA100B8028102700897F100BBE101E22
S1139C40FC103ABC1020271210A3812749300520AC
S1139C50F281412504805B80A5398E1077EEE411F2
S1139C60839B112734FC1022FD1046C30007FD100E
S1139C7044BE1020BF104ABD940BBE1044BF102236
S1139C80BE1048BF1020BE104AFC103AED814F5F51
S1139C90ED84ED02A704BF103C399080000000BDA4
S1139CA0107FBD99A8B610572B6BBD99AAB6105258
S1139CB0819025088E9C9ABDE7E22659BDE81BFCDD
S1139CC0105539FC10083406125FBE103A34148D56
S1139CD0CE3534BF103AFE105534605CBD1085811A
S1139CE02C27E7F71006BD9AF03506FD1008BE10C4
S1139CF020BC10222724FC103A10A3842706EC026F
S1139D00308B20EDC612B61008260CF61006E104BE
S1139D102768C6108CC6087E943ACC0005FD1067EF
S1139D20FC103AED84F61006E704BD9424BF1044F9
S1139D30C60B4F7D100827053506C30001ED058DC0
S1139D406EFD106730027A100626E5BF1012F3107C
S1139D50121025F6E31F01BD9429830035FD10225E
S1139D604F301FA705BC101226F7BE1044B61022B0
S1139D70B31044ED02B610082634E604F710064F7B
S1139D805FFD10673506FD105510A3052444FE1031
S1139D906727058D1AF3105530027A100626E2ED76
S1139DA0E358495849E3E1308B3005BF103C39860C
S1139DB010B71048EC05FD101A4F5F584925137869
S1139DC010687910672405F3101A25067A104826BE
S1139DD0EA397E9D121F40B31022214F7F1009FDE6
S1139DE01053C6907EE7C7BD99AACE11F3BDE960B2
S1139DF032628E11F2200EBF10508D6FBF105BF7D0
S1139E00105939301F8622B71004B710053001BF2E
S1139E101065BF105BC6FF5CA680270EB110042737
S1139E2005B1100526F181222702301FBF1067F704
S1139E301059FE1065118311F322088DBABE106506
S1139E40BD9F6ABE100E8C10F42605C61E7E943A81
S1139E50B61059A700FC105BED0286FFB71009BFCE
S1139E601010BF10553005BF100E397F100A4F3443
S1139E7006FC1026A3E010B31024250DFD1026BE09
S1139E8010263001BF10283584C61A73100A27BD66
S1139E908D04350420D8BE102ABF10264F5FFD1054
S1139EA04EBE1024BF104A8E10CCBC100E27048D59
S1139EB03A20F7BE101EBC102027048D2820F7BFBF
S1139EC01044BE1044BC1022273CEC02F31044FDA5
S1139ED01044A6012AECE60458CB053ABC104427EA
S1139EE0E48D0820F7A60130022A18E6842714EC32
S1139EF00210B31026220C10B3104A2306BF104ED2
S1139F00FD104A300539BE104E27FA4FE6845AF345
S1139F10104AFD1046BE1026BF1044BD940DBE105D
S1139F204EFC1048ED02BE1048301F7E9E99FC1076
S1139F30553406BD9AA7BD99AD3510BF1065E684AA
S1139F40BE1055EB842405C61C7E943ABD9DF7BE15
S1139F501065E6848D12BE10508D268D0DBE1065E1
S1139F608D1FBD9E437E99D1AE02FE10285C200455
S1139F70A680A7C05A26F9FF102839BD99ADBE1096
S1139F8055E6848D1B2616AE07301FBC1026260A04
S1139F903404F31026FD10263504300139AE02399D
S1139FA0BC10102609BF100E301BBF10104F398D86
S1139FB0037E9DDB8DC57F10095D39BDA045C601BB
S1139FC0BD9E6BB61056BD9DFCA78432627E9E4337
S1139FD08D0220DD8DDE2764E684398D4D4FE184CA
S1139FE02303E6844F3406BD9DFABE10508D92358E
S1139FF0043A3504BD9F6A20D48D2FA0844020DE0E
S113A000C6FFF71056BD108581292705BD9AF68D28
S113A010318D1727275F4AA18424CA1F89E0845001
S113A020F1105623C0F6105620BBBD9AF0EEE4AEF4
S113A03065BF1050A664E66432671F357E9D15BD6A
S113A040107FBD99A8BD9CA54D26F17E1085BD9FAE
S113A050B410274493FE1086BF10863AA684345267
S113A0606F84BD1085BDE8773552A784FF1086390B
S113A0708D08BF102EBD9AF620C8BD99A8B61057FA
S113A0802BBAB61052819022B3BDE81BBE105539CD
S112A0908DEBE6847E9DDB8DD7BE102EE78439E1
S113E000457874656E646564204D532042415349DC
S113E010432077697468206175746F7374617274D6
S113E02020524F4D00546869732069732061206445
S113E03065726976656420776F726B2066726F6DA6
S113E0402074686174206F66205C20536561726C73
S113E050652E00687474703A2F2F736561726C6555
S113E0602E686F737465692E636F6D2F6772616EAE
S113E070742F363830392F53696D706C65363830EB
S113E080392E68746D6C004920686176652075735B
S113E0906564204772616E742773203638303920E6
S113E0A0457874656E646564204241534943207722
S113E0B06974682076657279206D696E696D616C2A
S113E0C020616461706174696F6E7320746F207075
S113E0D06F727420746F2068643633303920435073
S113E0E055206F7220746865205342432068617222
S113E0F064776172652E205265717569726573204B
S113E100534243363330392043504C442056312E49
S113E11033210074617267657420746F6F6C636877
S113E12061696E3A206C77746F6F6C73206C7761E1
S113E130736D2076657220342E313000746F6D63F8
S113E14069726375697440676D61696C2E636F6D84
S10EE15020352F32352F3230313400DF
S113E2003401BD97B9BD94EDBF106935012714BD24
S113E2101085271581A7260ABD107F2706BD97B94B
S113E220270739CEFFFFFF102E3262BE1069BDE30F
S113E230E6BD91B9EC8426037E945ABF1069EC02C2
S113E24010B3102E22F2BDE94FBDE439BE10698D22
S113E25010AE9F1069CE10F7A6C027D2BDE43E20B1
S113E260F73004108E10F7A68027512B15813A261B
S113E2700DE684C18427F0C18327EC8C86218D3080
S113E28020E5CE90FE81FF2604A6803345847F33AB
S113E2904A6DC427E7A0C42AF6ABC4EE414A2B0654
S113E2A06DC02AFC20F7A6C48D066DC02AF820B7DD
S113E2B0108C11F02406847FA7A06FA439BE1086A9
S113E2C0CE10F67F10467F1047A68027257D104686
S113E2D02710BD9C51241B81302504813923137FD1
S113E2E010468120270CB710458122273D7D104719
S113E2F0271BA7C02707813A27C916FFCC6FC06F19
S113E300C01F308310F48E10F5BF108639813F266C
S113E31004868720DD81272615CC3A83EDC17F1042
S113E32045A68027CDB1104527C8A7C020F381306A
S113E3302504813C25BC301F34507F1044CE90FE10
S113E3407F1045334AA6C4273510AE41AEE4E6A09B
S113E350E08027FAC180263E32623540FA1045B685
S113E36010442606C1842606863AEDC1208CE7C0F7
S113E370C18626037C1047C18227A316FF7CCE9159
S113E3800373104426BA3550A680A7C0BD9C5125FE
S113E390EA73104620E57C10454A27A7313FE6A0E2
S113E3A02AFC20A8273C8D0139BDF4D42742819F43
S113E3B0275B812C273B813B2769BD99BEB6100999
S113E3C034022606BDE95DBD9E038D603504BD9112
S113E3D04B5D2609BD1085812C27168D5CBD1085EB
S113E3E026CC860D2058BD914B27F7B6106F26F228
S113E3F039BD914B270CF6106FF1106E25078DE295
S113E4002021F6106FF0106D24FB502011BDA03FA9
S113E41081291026B6EBBD914BF0106F23058D19A1
S113E4205A26FBBD107F7EE3ACBD9E05BD9F7E5C7E
S113E4305A27BDA6808D0720F786208C863F7E90C4
S113E4400B8EEA59200BBDE622731057731065201A
S113E45003BDE6225D102703228E105F1F895D1025
S113E46027008CF0105210270086250DB71052B6E5
S113E4701064B710578E105250C1F82F734F6401B7
S113E480BDE586F610652A0B63016302630363042A
S113E490438900B71066B61056B91063B71056B664
S113E4A01055B91062B71055B61054B91061B710B1
S113E4B054B61053B91060B710535D2A5825028D15
S113E4C0785FB61053263FB61054B71053B61055A4
S113E4D0B71054B61056B71055B61066B710567F1D
S113E4E01066CB08C1282DDA4FB71052B710573930
S113E4F01700865F208D5C78106679105679105568
S113E5007910547910532AEEB610523404A0E0B7AF
S113E510105223D48C250A7810668600B710662022
S113E520117C105227357610537610547610557698
S113E530105624048D1227E939731057731053733E
S113E5401054731055731056BE10553001BF10553A
S113E5502608BE10533001BF105339C60A7E943AC0
S113E5608E1015A604B71066A603A704A602A70377
S113E570A601A702B6105EA701CB082FE6B6106667
S113E580C008270C6701660266036604465C26F42D
S113E590398100000000170089102700841700A3A8
S113E5A08600B71016B71017B71018B71019F61061
S113E5B0568D2DF61066F7108EF610558D22F61036
S113E5C066F7108DF610548D17F61066F7108CF65A
S113E5D010538D10F61066F7108BBDE72D7EE4C145
S113E5E01027FF7C43B610165627362421B610197F
S113E5F0BB1063B71019B61018B91062B71018B66B
S113E6001017B91061B71017B61016B9106046B7D5
S113E61010167610177610187610197610664F209B
S113E620C439EC01B710648A80FD1060F61064F8F8
S113E6301057F71065EC03FD1062A684B7105FF65F
S113E6401052394D271BBB1052464928148B80B7F2
S113E6501052270FB61065B7105739B6105743201C
S113E660023262102AFE817EE55BBDE79A270F8B9A
S113E6700225F47F1065BDE45C7C105227E93984DF
S113E68020000000BDE79A8EE67F5FF71065BDE7C6
S113E6903A8C8D8E102700907010528DA67C1052EB
S113E6A027C58E1016C604F71006C601B61053B15E
S113E6B010602619B61054B110612611B61055B168
S113E6C010622609B61056B110632601431FA859DB
S113E6D0240BE7807A10062B44273EC6011F8A25A7
S113E6E01278106379106279106179106025DE2B3D
S113E6F0BB20DAB61063B01056B71063B61062B21E
S113E7001055B71062B61061B21054B71061B6104C
S113E71060B21053B7106020C8C64020C056565689
S113E720F710668D087EE4C1C6147E943ABE1016B6
S113E730BF1053BE1018BF1055393402EC01B71086
S113E740578A80FD10537F1066E684AE03BF1055D0
S113E750F7105235828E104820078E10438CBE105D
S113E7603EB61052A784B610578A7FB41053A7013F
S113E770B61054A702FE1055EF0339B61064B71053
S113E78057BE105FBF10527F1066B61061B71054A9
S113E790B61057BE1062BF105539FC1052FD105F01
S113E7A0BE1054BF1061BE1056BF10634D39F61031
S113E7B0522709F6105759C6FF250150398DEFF736
S113E7C010537F1054C688B610538080F71052FC43
S113E7D01077FD1055B71066B710577EE4BD7F1053
S113E7E05739E68427C8E601F810572BC6F61052AD
S113E7F0E1842621E601CA7FF41053E1012616F6CE
S113E8001054E102260FF61055E1032608F61056BF
S113E810E00426013956F81057209BF61052274A77
S113E820C0A0B610572A0673105EBDE53C8E105288
S113E830C1F82E07BDE5797F105E397F105EB610F2
S113E84057497610537EE586F61052C1A024278DD1
S113E850CAF71066B61057F71057808086A0B71015
S113E86052B61056B710047EE4BDF71053F7105497
S113E870F71055F7105639BE1077BF1057BF105216
S113E880BF1054BF1055BF104ABF10482574BDF0C7
S113E8902C812D26057310582004812B2605BD10CC
S113E8A07F255F812E272D8145262EBD107F25745F
S113E8B081A7270E812D270A81A62709812B2705E9
S113E8C0200873104BBD107F255A7D104B270A700A
S113E8D0104A200573104926C5B6104AB01048B72F
S113E8E0104A27142A0ABDE6847C104A26F8200818
S113E8F0BDE66A7A104A26F8B61058102AFF777EC9
S113E900EA82F61048F01049F710483402BDE66A6E
S113E9103504C0308D022086BDE75ABDE7BF8E1096
S113E920437EE451F6104A5858FB104A588030345C
S113E93004ABE0B7104A208D9B3EBC1FFD9E6E6B5E
S113E94027FD9E6E6B28008E93CC8D0EFC106BFD04
S113E9501053C69043BDE7CC8D037EE429CE11F459
S113E9608620F610572A02862DA7C0FF1067B7101D
S113E970578630F61052102700D74FC18022088ED8
S113E980E942BDE59686F7B710488EE93DBDE7ED4F
S113E9902E108EE938BDE7ED2E10BDE66A7A1048D8
S113E9A020F0BDE6847C104820E0BDE441BDE81BB6
S113E9B0C601B610488B0A2B09810B24054A1F890E
S113E9C086024A4AB7104AF710482E0EFE10678690
S113E9D02EA7C05D27048630A7C08EEA5EC680B627
S113E9E01056AB03B71056B61055A902B71055B65A
S113E9F01054A901B71054B61053A984B710535C2E
S113EA00565928DB2403C00B50CB2F30041F9884A5
S113EA107FA7C07A10482604862EA7C053C4808CD2
S113EA20EA8226BBA6C2813027FA812E2602335FF2
S113EA30862BF6104A271C2A03862D50A7428645AA
S113EA40A741862F4CC00A24FBCB3AED436F4520E7
S113EA5004A7C46F418E11F4398000000000FA0A43
S113EA601F0000989680FFF0BDC0000186A0FFFF44
S113EA70D8F0000003E8FFFFFF9C0000000AFFFF3E
S113EA80FFFFB61052270373105739BF1067BDE755
S113EA905A8D058D098E10437EE596BF1067BDE73C
S113EAA055BE1067E680F71058BF10678DEABE1098
S113EAB0673005BF1067BDE4518E10487A105826A0
S113EAC0EB39BDE7AE2B2327158D10BDE75A8D0E0C
S113EAD08E10438DC38EE591BDE4517EE848BE108F
S113EAE0B4BF1053BE10B6BF1055BEEB23BF1060A9
S113EAF0BEEB25BF1062BDE5A0FC108DC3658BFD88
S113EB0010B6FD1055FC108BC9B08905FD10B4FD7D
S113EB1010537F10578680B71052B61018B710667E
S113EB207EE4C140E64DABBDE79A8EEB73F610640C
S113EB30BDE68BBDE79A8DA37F1065B6105FF61016
S113EB4052BDE4498EEB78BDE446B6105734022A30
S113EB500BBDE441B610572B0673100DBDEA828E2F
S113EB60EB78BDE45135024D2A03BDEA828EEB7D7C
S113EB707EEA8B83490FDAA27F000000000584E659
S113EB801A2D1B862807FBF8879968890187233586
S113EB90DFE186A55DE72883490FDAA2A154468FF9
S113EBA0138F524389CD8EEBDDBDE4517EEB27BD3F
S113EBB0E75A7F100D8DF58E104DBDE7618E104321
S113EBC0BDE73A7F1057B6100D8D0D7D10521027FA
S113EBD0F9898E104D7EE69234027EEB5C81490FFA
S113EBE0DAA2B6105734022A028D25B61052340226
S113EBF0818125058EE5918DDC8EEC14BDEA8B3583
S113EC0002818125068EEBDDBDE44635024D2A03E3
S113EC107EEA82390B76B383BDD3791EF4A6F57BE5
S113EC2083FCB0107C0C1F67CA7CDE53CBC17D14FF
S113EC3064704C7DB7EA517A7D6330887E7E92445D
S113EC40993A7E4CCC91C77FAAAAAA1381000000EE
S113EC5000037F5E56CB7980139B0B6480763893D8
S113EC60168238AA3B20803504F334813504F3340A
S113EC70808000000080317217F8BDE7AE102FB01D
S113EC80948EEC66B61052808034028680B710529F
S113EC90BDE4518EEC6BBDE6928EE591BDE4468EEB
S113ECA0EC51BDEA8B8EEC70BDE4513504BDE9181E
S113ECB08EEC757EE596BDE79A8EEA59BDE73A2754
S113ECC06A4D26037EE4E98E104DBDE7615FB61000
S113ECD0642A12BDE8488E104DB61064BDE7ED26D7
S113ECE00443F61004BDE77E3404BDEC7A8E104D67
S113ECF0BDE5968D363502461025FD86398138AA44
S113ED003B29077134583E5674167EB31B772FEE99
S113ED10E3857A1D841C2A7C6359580A7E75FDE7B5
S113ED20C6803172181081000000008EECFDBDE534
S113ED3096BDE75AB61052818825037EE65BBDE88E
S113ED4048B610048B8127F34A34028E1043BDE485
S113ED50468EED02BDEA9B7F10653502BDE6433960
S113ED60BDE7AE2B037EE8487310578DF87EEA8228
S113ED70BDF1DD32628601B7109BBD94ED1025A96B
S113ED8090BDE2611F208310F8F7109AFC102EBD8D
S113ED90E94FBDE4398E10F7F6109B26255FBDEED2
S113EDA0CEBDF726250B80303402860A3DEBE020E9
S113EDB0EDC001C90181412605BDE3E220B7814CC4
S113EDC0260C8D337F109BBDE3E220C03262810D9F
S113EDD0260E8D23BDE3E28E10F7BF10867E948647
S113EDE0814527F081512606BDE3E27E945A8D02C7
S113EDF020AB812026108CC6F9A6842708BD900B71
S113EE0030015A26F4398144264A6D8427F78D044B
S113EE105A26F7397A109A311F3121A621A7A42640
S113EE20F839814927148158270E8148265F6F8459
S113EE301F108310F8F7109A8DBDBDEECE810D27FB
S113EE408B811B2725810826228C10F727EC8D4700
S113EE508DC220E6814326CA6D84270EBDEECE25E1
S113EE600220F5A7808D395A26EE39F6109AC1F999
S113EE70260220C634106D8026FCE682E701ACE44D
S113EE8026F83262A7808D187C109A20AD8108265E
S113EE90128D045A26FB398C10F727CE301F8608B2
S113EEA07E900B814B2705805327013934028D1E38
S113EEB03402A68427166D6126068DE430012003F2
S113EEC0BDEE14A684A1E426E95A26E635A0BD9039
S113EED000817F24F9815F2602861B810D270E8124
S113EEE01B270A81082706812025E31A0139864F4A
S113EEF0B7108F398600F6107C1D7E9DDCBD9AF319
S113EF00FC10223406BD9BF7BD9AF035061E10BCDA
S113EF10102226547E9DDCBD107FBD9AF3BD9BF765
S113EF203410EC0210B310242305B3102A2312E684
S113EF3084BD9E6B3410AE62BD9F683550AF4234C1
S113EF4040BDA07534045D271FC6FF81292703BD7A
S113EF50A0753404BD9AF0C6AEBD9AF88D2E1F1369
S113EF60AE62A684A06124037E9D154CA1E4240214
S113EF70A7E4A6611E89AE025A3A4D270DA1E423E7
S113EF8002A6E41F891E31BD91D43596BD99BE7E7B
S113EF909F7BBD9AF3BDA0423404BD9AF6BD99BED1
S113EFA0BD9AF0B610092605BDA0452003BD9FD427
S113EFB03404E661BD9DFA35062705A7805A26FB71
S113EFC07E9FCBBD9AF3BD99BEC6013404B6100929
S113EFD02610BDA045E7E4278FBD9AF6BD99BEBDB6
S113EFE099ADBE10553410BD9AF6BDEF8C3414BDE6
S113EFF09AF0AE63BD9F813404E1662523A66127A0
S113F0001CE6665A3A3184EE62E661A6E4A0664CD8
S113F010A161250CA680A1C0260C5A26F7E666211C
S113F0205F32677E9DDB6C66302120D9812626689D
S113F03032627F10557F10568E1055BD107F814F60
S113F04027138148272BBD1085200D81381022AA53
S113F050B0C6038D32BD107F25F17F10537F10544D
S113F0607F10097F10667F1057C6A0F710527EE408
S113F070C1BD107F250BBD9C5125DF814724DB805A
S113F08007C6048D0220EA680169841025F4CC5A6D
S113F09026F58030AB01A7013935407F1009BE1039
S113F0A086BD107F8126278A81B0276781FF2609C4
S113F0B0BD107F8183102700BBBF10866EC4BE10B5
S113F0C06B300126D3C6167E943AAE9F10868CFF11
S113F0D0831027007E8D278DE5BD9AF3C680F71037
S113F0E00BBD9BF78D2ABD9AF0C6AEBD9AF8BE1033
S113F0F04EFC1086ED84FC103CED027E9721C6B0D8
S113F100BD9AF8C680F7100B8A80BD9BFEBF104ED7
S113F1107E99AA8DE93410BD9AEB8DF43540C63240
S113F120AE4227A310BE1086EEC4FF1086A6043498
S113F13002EC84EE023476BDE761BD99A83576ED24
S113F14084EF023502A704BD10851026A9B310BFB1
S113F150108639BD107F8D0934108D333540AFC40E
S113F160395FBD107F240780301F89BD107FBE101A
S113F17090583A398DEBAE843410BD9AEB8E105210
S113F180B610092709BD9F7EBE1055B6100939C6B1
S113F190AEBD9AF87EA07A1027AB7ABD97B9BD941C
S113F1A0EDBF1096BD1085271281A72643BD107FA1
S113F1B027048D29200586FFB7102EFE10968CEEAD
S113F1C0C4ECC42707EC42B3102E23F3BE10968D73
S113F1D016BD9512BE1096BD94DD7E945ABD97B9A6
S113F1E07E91DDA6C0A78011B3101E26F6BF101EA7
S113F1F039BDF0BEBD107F8122260BBD9ACAC63B25
S113F200BD9AF8BDE42C327EBD98853262BD9BF771
S113F210BF103EBD99AD8E10F64FBD9E0A7E98007C
S113F220BD97B9BE102E39BE1094BF102E7E94ED3A
S113F230BD9518CC000AFD1098FD10925FFD109446
S113F240BD108524088DD9BF1098BD1085271EBD1B
S113F2509AF624088DCABF1094BD1085270FBD9A55
S113F260F624078DBBBF10922752BD91DD8DB8BF28
S113F2701096BE10988DB3BC109625408D1DBDF31D
S113F2801CBD94DA8DA1BF10968D3F8D0F8D3BBDB3
S113F290F3CBBD9518BD94DA7E945A864FB7109B74
S113F2A0BE1096FC10988D177D109B2602ED02AEC1
S113F2B0848D0CF31092250481FA25EC7E9D15347F
S113F2C006EC8435062602326239BE101C301F302B
S113F2D0018DEC30033001A68427F4BF10124A27B5
S113F2E00C4A272D4A26EE8603A78020E6EC016A05
S113F2F00227014FE6036A0427015FED01FD102E8A
S113F300BD94EDBE101225DFFC104A6C80ED842004
S113F310C26F84AE01AE02BF104A20E7BE101C20AB
S113F32005BE108630018D9730023001BF1086BDB6
S113F330107F4D27EC2AF8BE108681FF27EC81A2AE
S113F34027138184270F818126E5BD107F81A027A3
S113F3500481A126D7BD107F2505BD108520D3BE0D
S113F36010863410BD97B9BE1086A682BDF7262537
S113F370F930011F10E061C0052727250A338450A6
S113F3803085BDF1E7201BBF104ABE101EBF1046DA
S113F390503085BF1044BF101EBD940BBE1048BF33
S113F3A0108635108601A784A702A704F6102E261E
S113F3B004C6016C02E701F6102F2604C6016C0492
S113F3C0E703BD1085812C278C208FBE101C301FB5
S113F3D03001EC02FD106BBDF2BF30033001A68496
S113F3E027EE4A271B800226F334108EF42BBDE44B
S113F3F029AEE4EC01BDE94FBDE947BDE3E23510B8
S113F4003410EC01FD1055BDF05ABDE95D3540C620
S113F410053001A68427055AA7C020F530C45D270E
S113F420BD31C433C5BDF1E730A420B2554C200032
S113F430BDA07D8E11F3C60434045F860478105693
S113F440791055594A26F65D260AA6E44A27058C02
S113F45011F3270CCB30C1392302CB07E7806F842B
S113F46035045A26D332628E11F27E9E058601B788
S113F470109C5ABDF644BD1085102700A8F71096BD
S113F480BD99BEBD99ADBE1055BF1050F6109CBDC0
S113F4909FDDBDE42CBE1055F6109CE0845A102B61
S113F4A00176BDE43920F6F71096BF10128602B734
S113F4B0109CA684812527BA812026087C109C30C4
S113F4C0015A26EEBE1012F610968625BDF644BDEE
S113F4D0900B202E81B12701393262BD99C0BD99AC
S113F4E0ADC63BBD9AF8BE1055BF10982008B610A3
S113F4F09A270ABE10987F109AE68426037E9D15EB
S113F500AE027F109D7F109CA68081211027FF5D95
S113F510812327655A2619BDF644BD900BBD10857D
S113F52026CCB6109A2603BDE3E2BE10987E9F81D6
S113F530812B260ABDF6448608B7109D20C7812E6C
S113F540275881251027FF5FA18426808124271C4A
S113F550812A26F6B6109D8A20B7109DC102251473
S113F560A6018124260E5A30017C109CB6109D8A77
S113F57010B7109D30017C109C7F109B7C109C5A0E
S113F580274EA680812E2721812327F0812C262532
S113F590B6109D8A40B7109D20E2A68481231026D0
S113F5A0FF2A8601B7109B30017C109B5A2721A6A5
S113F5B080812327F4815E2617A1842613A10126C6
S113F5C00FA102260BC1042507C00430047C109D42
S113F5D0301F7C109CB6109D8508261B7A109C5DFC
S113F5E02715A684802D270681FE260B86088A040B
S113F5F0BA109DB7109D5ABD10851027FF27F7102C
S113F60096BD99A8B6109CBB109B81111022A7052A
S113F610BDF652301FBDE4297F109ABD1085270F17
S113F620B7109A813B2705BD9AF62003BD107FBE13
S113F6301098E684F01096AE023AF610961026FE64
S113F640C17EF51D3402862B7D109D2703BD900BD2
S113F6503582CE11F5C620B6109D85082702C62B2B
S113F6607D10572A057F1057C62DE7C0C630E7C066
S113F6708401102601208EE942BDE7ED2B15BDE97A
S113F6805DA68026FCA682A7018C11F426F78625A8
S113F690A78439B61052B7104A2703BDF862B610D2
S113F6A04A102B008A40BB109C8009BDF76CBDF941
S113F6B00ABDF89CB6104ABDF92DB6104ABDF8EB48
S113F6C0B6109B2602335F4ABDF76CBDF8184D2770
S113F6D006C12A2702E7C06FC48E11F43001BF109F
S113F6E012B6103DB01013B0109C2739A6848120A7
S113F6F027EA812A27E64F3402A680812D27F88144
S113F7002B27F4812427F08130260EA6018D17259E
S113F710083502A78226FA20C335024D26FBBE1007
S113F720128625A7823981302504803A80C639B6ED
S113F730109B27014ABB104A2B014F34022A0A347A
S113F74002BDE68435024C20F4B6104AA0E0B7109E
S113F7504A8B092B1BB6109C8009B0104A8D0DBD35
S113F760F90A202134028630A7C035024A2AF53925
S113F770B6109C8DF7BDF8F086F7B0104A8DED7F7A
S113F78010487F109ABDF89CB6109B2603FE103CCF
S113F790BB104A16FF31B6105234022703BDF8627B
S113F7A0B6109B27014ABB109C7F11F4F6109DC430
S113F7B00426037311F4BB11F4800934022A0A34B9
S113F7C002BDE68435024C20F4A6E42B014F40BB75
S113F7D0109C4CBB11F4B710487F109ABDF89C35AF
S113F7E002BDF92DB6109B2602335FE6E0270BF627
S113F7F0104ACB09F0109CF011F4862B5D2A038685
S113F8002D50A7418645A7C1862F4CC00A24FBCBA7
S113F8103AEDC16FC47EF6CB8E11F5E684340486CE
S113F82020F6109DC52035042708862AC12026020B
S113F8301F893404A780E6842710C145270CC130F2
S113F84027F2C12C27EEC12E26048630A782B610DB
S113F8509D85102704C624E782840435042602E724
S113F860823934404FB7104AF61052C18022138EA9
S113F870E942BDE596B6104A800920E9BDE6847CDC
S113F880104A8EE93DBDE7ED2EF28EE938BDE7ED75
S113F8902E08BDE66A7A104A20F035C03440BDE433
S113F8A041BDE81B35408EEA5EC6808D3EB61056DB
S113F8B0AB03B71056B61055A902B71055B610547D
S113F8C0A901B71054B61053A984B710535C565904
S113F8D028DB2403C00B50CB2F30041F98847FA750
S113F8E0C053C4808CEA8226C26FC47A1048260BA7
S113F8F0FF103C862EA7C07F109A397A109A2609E9
S113F9008603B7109A862CA7C039B6104A8B0AB75B
S113F91010484C800324FC8B05B7109AB6109D84C4
S113F920402603B7109A3934028DC035024A2B0A97
S113F93034028630A7C0A6E026ED3981891027F865
S107F940B07E9B01F5
S503029664
S9030000FC
